{
  "_format": "hh-sol-artifact-1",
  "contractName": "BetterBountyV2",
  "sourceName": "contracts/BetterBountyV0.2.sol",
  "abi": [
    {
      "inputs": [
        {
          "internalType": "string",
          "name": "project",
          "type": "string"
        }
      ],
      "stateMutability": "nonpayable",
      "type": "constructor"
    },
    {
      "inputs": [],
      "name": "BetterBounty__AlreadyWorking",
      "type": "error"
    },
    {
      "inputs": [],
      "name": "BetterBounty__BountyExpired",
      "type": "error"
    },
    {
      "inputs": [],
      "name": "BetterBounty__CannotPayoutZeroAddress",
      "type": "error"
    },
    {
      "inputs": [],
      "name": "BetterBounty__InvalidBountyId",
      "type": "error"
    },
    {
      "inputs": [],
      "name": "BetterBounty__InvalidPercentage",
      "type": "error"
    },
    {
      "inputs": [],
      "name": "BetterBounty__MaxWorkersReached",
      "type": "error"
    },
    {
      "inputs": [],
      "name": "BetterBounty__NoBountyWithId",
      "type": "error"
    },
    {
      "inputs": [],
      "name": "BetterBounty__NoFundsOnBounty",
      "type": "error"
    },
    {
      "inputs": [],
      "name": "BetterBounty__NoFundsOnContract",
      "type": "error"
    },
    {
      "inputs": [],
      "name": "BetterBounty__NotAWorker",
      "type": "error"
    },
    {
      "inputs": [],
      "name": "BetterBounty__NotAdmin",
      "type": "error"
    },
    {
      "inputs": [],
      "name": "BetterBounty__NotAdminProject",
      "type": "error"
    },
    {
      "inputs": [],
      "name": "BetterBounty__NotFunds",
      "type": "error"
    },
    {
      "inputs": [],
      "name": "BetterBounty__WorkerListEmpty",
      "type": "error"
    },
    {
      "inputs": [
        {
          "internalType": "address",
          "name": "_adminWallet",
          "type": "address"
        },
        {
          "internalType": "string",
          "name": "_project",
          "type": "string"
        }
      ],
      "name": "addAdmin",
      "outputs": [],
      "stateMutability": "nonpayable",
      "type": "function"
    },
    {
      "inputs": [],
      "name": "bountyCount",
      "outputs": [
        {
          "internalType": "uint256",
          "name": "",
          "type": "uint256"
        }
      ],
      "stateMutability": "view",
      "type": "function"
    },
    {
      "inputs": [
        {
          "internalType": "string",
          "name": "_id",
          "type": "string"
        },
        {
          "internalType": "uint256",
          "name": "_deadline",
          "type": "uint256"
        },
        {
          "internalType": "uint256",
          "name": "_startedAt",
          "type": "uint256"
        },
        {
          "internalType": "string",
          "name": "_project",
          "type": "string"
        }
      ],
      "name": "fundBounty",
      "outputs": [],
      "stateMutability": "payable",
      "type": "function"
    },
    {
      "inputs": [
        {
          "internalType": "string",
          "name": "_id",
          "type": "string"
        }
      ],
      "name": "getBountyById",
      "outputs": [
        {
          "components": [
            {
              "internalType": "string",
              "name": "id",
              "type": "string"
            },
            {
              "internalType": "uint256",
              "name": "pool",
              "type": "uint256"
            },
            {
              "internalType": "address[]",
              "name": "funders",
              "type": "address[]"
            },
            {
              "internalType": "address[]",
              "name": "workers",
              "type": "address[]"
            },
            {
              "internalType": "uint256",
              "name": "deadline",
              "type": "uint256"
            },
            {
              "internalType": "uint256",
              "name": "startedAt",
              "type": "uint256"
            },
            {
              "internalType": "string",
              "name": "status",
              "type": "string"
            },
            {
              "internalType": "string",
              "name": "project",
              "type": "string"
            }
          ],
          "internalType": "struct BetterBountyV2.Bounty",
          "name": "",
          "type": "tuple"
        }
      ],
      "stateMutability": "view",
      "type": "function"
    },
    {
      "inputs": [
        {
          "internalType": "address",
          "name": "_adminWallet",
          "type": "address"
        },
        {
          "internalType": "string",
          "name": "_project",
          "type": "string"
        }
      ],
      "name": "isAdmin",
      "outputs": [
        {
          "internalType": "bool",
          "name": "",
          "type": "bool"
        }
      ],
      "stateMutability": "view",
      "type": "function"
    },
    {
      "inputs": [
        {
          "internalType": "string",
          "name": "_id",
          "type": "string"
        },
        {
          "internalType": "address",
          "name": "workerWallet",
          "type": "address"
        },
        {
          "internalType": "uint256",
          "name": "percentage",
          "type": "uint256"
        }
      ],
      "name": "payoutBounty",
      "outputs": [],
      "stateMutability": "payable",
      "type": "function"
    },
    {
      "inputs": [
        {
          "internalType": "address",
          "name": "_adminWallet",
          "type": "address"
        }
      ],
      "name": "removeAdmin",
      "outputs": [],
      "stateMutability": "nonpayable",
      "type": "function"
    },
    {
      "inputs": [
        {
          "internalType": "string",
          "name": "_id",
          "type": "string"
        }
      ],
      "name": "startWork",
      "outputs": [],
      "stateMutability": "nonpayable",
      "type": "function"
    },
    {
      "inputs": [
        {
          "internalType": "address",
          "name": "_adminWallet",
          "type": "address"
        },
        {
          "internalType": "string",
          "name": "_project",
          "type": "string"
        }
      ],
      "name": "updateAdmin",
      "outputs": [],
      "stateMutability": "nonpayable",
      "type": "function"
    }
  ],
  "bytecode": "0x60806040523480156200001157600080fd5b5060405162002d0838038062002d088339818101604052810190620000379190620002e1565b80600160003373ffffffffffffffffffffffffffffffffffffffff1673ffffffffffffffffffffffffffffffffffffffff16815260200190815260200160002090805190602001906200008c92919062000094565b505062000397565b828054620000a29062000361565b90600052602060002090601f016020900481019282620000c6576000855562000112565b82601f10620000e157805160ff191683800117855562000112565b8280016001018555821562000112579182015b8281111562000111578251825591602001919060010190620000f4565b5b50905062000121919062000125565b5090565b5b808211156200014057600081600090555060010162000126565b5090565b6000604051905090565b600080fd5b600080fd5b600080fd5b600080fd5b6000601f19601f8301169050919050565b7f4e487b7100000000000000000000000000000000000000000000000000000000600052604160045260246000fd5b620001ad8262000162565b810181811067ffffffffffffffff82111715620001cf57620001ce62000173565b5b80604052505050565b6000620001e462000144565b9050620001f28282620001a2565b919050565b600067ffffffffffffffff82111562000215576200021462000173565b5b620002208262000162565b9050602081019050919050565b60005b838110156200024d57808201518184015260208101905062000230565b838111156200025d576000848401525b50505050565b60006200027a6200027484620001f7565b620001d8565b9050828152602081018484840111156200029957620002986200015d565b5b620002a68482856200022d565b509392505050565b600082601f830112620002c657620002c562000158565b5b8151620002d884826020860162000263565b91505092915050565b600060208284031215620002fa57620002f96200014e565b5b600082015167ffffffffffffffff8111156200031b576200031a62000153565b5b6200032984828501620002ae565b91505092915050565b7f4e487b7100000000000000000000000000000000000000000000000000000000600052602260045260246000fd5b600060028204905060018216806200037a57607f821691505b6020821081141562000391576200039062000332565b5b50919050565b61296180620003a76000396000f3fe6080604052600436106100865760003560e01c80634c11d26f116100595780634c11d26f146101385780636f028f611461015457806373b51d381461017d578063864da8eb146101a6578063d16856ca146101e357610086565b80631785f53c1461008b5780631bea69e3146100b45780631ed4b4e5146100f15780633e362c961461010d575b600080fd5b34801561009757600080fd5b506100b260048036038101906100ad9190611fd7565b61020c565b005b3480156100c057600080fd5b506100db60048036038101906100d6919061214a565b610315565b6040516100e891906121c1565b60405180910390f35b61010b60048036038101906101069190612212565b61037c565b005b34801561011957600080fd5b50610122610c07565b60405161012f91906122c0565b60405180910390f35b610152600480360381019061014d91906122db565b610c0d565b005b34801561016057600080fd5b5061017b6004803603810190610176919061214a565b611367565b005b34801561018957600080fd5b506101a4600480360381019061019f919061234a565b611462565b005b3480156101b257600080fd5b506101cd60048036038101906101c8919061234a565b611995565b6040516101da91906125b4565b60405180910390f35b3480156101ef57600080fd5b5061020a6004803603810190610205919061214a565b611cbe565b005b6040518060200160405280600081525080519060200120600160003373ffffffffffffffffffffffffffffffffffffffff1673ffffffffffffffffffffffffffffffffffffffff16815260200190815260200160002060405161026f91906126d6565b604051809103902014156102af576040517ffe8409fb00000000000000000000000000000000000000000000000000000000815260040160405180910390fd5b60405180602001604052806000815250600160008373ffffffffffffffffffffffffffffffffffffffff1673ffffffffffffffffffffffffffffffffffffffff1681526020019081526020016000209080519060200190610311929190611df3565b5050565b60008180519060200120600160008573ffffffffffffffffffffffffffffffffffffffff1673ffffffffffffffffffffffffffffffffffffffff16815260200190815260200160002060405161036b91906126d6565b604051809103902014905092915050565b60003414156103b7576040517f9878742500000000000000000000000000000000000000000000000000000000815260040160405180910390fd5b60405180602001604052806000815250805190602001208480519060200120141561040e576040517faf90804900000000000000000000000000000000000000000000000000000000815260040160405180910390fd5b6000808560405161041f9190612729565b90815260200160405180910390206040518061010001604052908160008201805461044990612605565b80601f016020809104026020016040519081016040528092919081815260200182805461047590612605565b80156104c25780601f10610497576101008083540402835291602001916104c2565b820191906000526020600020905b8154815290600101906020018083116104a557829003601f168201915b50505050508152602001600182015481526020016002820180548060200260200160405190810160405280929190818152602001828054801561055a57602002820191906000526020600020905b8160009054906101000a900473ffffffffffffffffffffffffffffffffffffffff1673ffffffffffffffffffffffffffffffffffffffff1681526020019060010190808311610510575b50505050508152602001600382018054806020026020016040519081016040528092919081815260200182805480156105e857602002820191906000526020600020905b8160009054906101000a900473ffffffffffffffffffffffffffffffffffffffff1673ffffffffffffffffffffffffffffffffffffffff168152602001906001019080831161059e575b50505050508152602001600482015481526020016005820154815260200160068201805461061590612605565b80601f016020809104026020016040519081016040528092919081815260200182805461064190612605565b801561068e5780601f106106635761010080835404028352916020019161068e565b820191906000526020600020905b81548152906001019060200180831161067157829003601f168201915b505050505081526020016007820180546106a790612605565b80601f01602080910402602001604051908101604052809291908181526020018280546106d390612605565b80156107205780601f106106f557610100808354040283529160200191610720565b820191906000526020600020905b81548152906001019060200180831161070357829003601f168201915b5050505050815250509050604051806020016040528060008152508051906020012081600001518051906020012014156109ca576000604051806101000160405280878152602001348152602001600067ffffffffffffffff8111156107895761078861201f565b5b6040519080825280602002602001820160405280156107b75781602001602082028036833780820191505090505b508152602001600067ffffffffffffffff8111156107d8576107d761201f565b5b6040519080825280602002602001820160405280156108065781602001602082028036833780820191505090505b5081526020018681526020018581526020016040518060400160405280600481526020017f4f50454e0000000000000000000000000000000000000000000000000000000081525081526020018481525090508060008760405161086a9190612729565b90815260200160405180910390206000820151816000019080519060200190610894929190611df3565b506020820151816001015560408201518160020190805190602001906108bb929190611e79565b5060608201518160030190805190602001906108d8929190611e79565b506080820151816004015560a0820151816005015560c0820151816006019080519060200190610909929190611df3565b5060e0820151816007019080519060200190610926929190611df3565b5090505060008660405161093a9190612729565b9081526020016040518091039020600201339080600181540180825580915050600190039060005260206000200160009091909190916101000a81548173ffffffffffffffffffffffffffffffffffffffff021916908373ffffffffffffffffffffffffffffffffffffffff160217905550600260008154809291906109bf9061276f565b919050555050610c00565b8060800151421115610a08576040517ffdf3842300000000000000000000000000000000000000000000000000000000815260040160405180910390fd5b3481602001818151610a1a91906127b8565b9150818152505060006001905060005b826040015151811015610aa3573373ffffffffffffffffffffffffffffffffffffffff1683604001518281518110610a6557610a6461280e565b5b602002602001015173ffffffffffffffffffffffffffffffffffffffff161415610a925760009150610aa3565b80610a9c9061276f565b9050610a2a565b5081600087604051610ab59190612729565b90815260200160405180910390206000820151816000019080519060200190610adf929190611df3565b50602082015181600101556040820151816002019080519060200190610b06929190611e79565b506060820151816003019080519060200190610b23929190611e79565b506080820151816004015560a0820151816005015560c0820151816006019080519060200190610b54929190611df3565b5060e0820151816007019080519060200190610b71929190611df3565b509050508015610bfe57600086604051610b8b9190612729565b9081526020016040518091039020600201339080600181540180825580915050600190039060005260206000200160009091909190916101000a81548173ffffffffffffffffffffffffffffffffffffffff021916908373ffffffffffffffffffffffffffffffffffffffff1602179055505b505b5050505050565b60025481565b6040518060200160405280600081525080519060200120600160003373ffffffffffffffffffffffffffffffffffffffff1673ffffffffffffffffffffffffffffffffffffffff168152602001908152602001600020604051610c7091906126d6565b60405180910390201415610cb0576040517ffe8409fb00000000000000000000000000000000000000000000000000000000815260040160405180910390fd5b6000471415610ceb576040517f3c63656c00000000000000000000000000000000000000000000000000000000815260040160405180910390fd5b600073ffffffffffffffffffffffffffffffffffffffff168273ffffffffffffffffffffffffffffffffffffffff161415610d52576040517ff47ca55900000000000000000000000000000000000000000000000000000000815260040160405180910390fd5b6064811115610d8d576040517f07528dbc00000000000000000000000000000000000000000000000000000000815260040160405180910390fd5b60008084604051610d9e9190612729565b908152602001604051809103902060405180610100016040529081600082018054610dc890612605565b80601f0160208091040260200160405190810160405280929190818152602001828054610df490612605565b8015610e415780601f10610e1657610100808354040283529160200191610e41565b820191906000526020600020905b815481529060010190602001808311610e2457829003601f168201915b505050505081526020016001820154815260200160028201805480602002602001604051908101604052809291908181526020018280548015610ed957602002820191906000526020600020905b8160009054906101000a900473ffffffffffffffffffffffffffffffffffffffff1673ffffffffffffffffffffffffffffffffffffffff1681526020019060010190808311610e8f575b5050505050815260200160038201805480602002602001604051908101604052809291908181526020018280548015610f6757602002820191906000526020600020905b8160009054906101000a900473ffffffffffffffffffffffffffffffffffffffff1673ffffffffffffffffffffffffffffffffffffffff1681526020019060010190808311610f1d575b505050505081526020016004820154815260200160058201548152602001600682018054610f9490612605565b80601f0160208091040260200160405190810160405280929190818152602001828054610fc090612605565b801561100d5780601f10610fe25761010080835404028352916020019161100d565b820191906000526020600020905b815481529060010190602001808311610ff057829003601f168201915b5050505050815260200160078201805461102690612605565b80601f016020809104026020016040519081016040528092919081815260200182805461105290612605565b801561109f5780601f106110745761010080835404028352916020019161109f565b820191906000526020600020905b81548152906001019060200180831161108257829003601f168201915b505050505081525050905060405180602001604052806000815250805190602001208160000151805190602001201415611105576040517ffbe9225100000000000000000000000000000000000000000000000000000000815260040160405180910390fd5b8060e0015180519060200120600160003373ffffffffffffffffffffffffffffffffffffffff1673ffffffffffffffffffffffffffffffffffffffff16815260200190815260200160002060405161115d91906126d6565b60405180910390201461119c576040517f918278a400000000000000000000000000000000000000000000000000000000815260040160405180910390fd5b6000816020015114156111db576040517fc89dd75500000000000000000000000000000000000000000000000000000000815260040160405180910390fd5b600081606001519050600081511415611220576040517fca20333000000000000000000000000000000000000000000000000000000000815260040160405180910390fd5b6000805b8251811015611295578573ffffffffffffffffffffffffffffffffffffffff168382815181106112575761125661280e565b5b602002602001015173ffffffffffffffffffffffffffffffffffffffff1614156112845760019150611295565b8061128e9061276f565b9050611224565b50806112cd576040517f4ad4885200000000000000000000000000000000000000000000000000000000815260040160405180910390fd5b60006112dd858560200151611db9565b9050806000886040516112f09190612729565b90815260200160405180910390206001016000828254611310919061283d565b925050819055508573ffffffffffffffffffffffffffffffffffffffff166108fc829081150290604051600060405180830381858888f1935050505015801561135d573d6000803e3d6000fd5b5050505050505050565b6040518060200160405280600081525080519060200120600160003373ffffffffffffffffffffffffffffffffffffffff1673ffffffffffffffffffffffffffffffffffffffff1681526020019081526020016000206040516113ca91906126d6565b6040518091039020141561140a576040517ffe8409fb00000000000000000000000000000000000000000000000000000000815260040160405180910390fd5b80600160008473ffffffffffffffffffffffffffffffffffffffff1673ffffffffffffffffffffffffffffffffffffffff168152602001908152602001600020908051906020019061145d929190611df3565b505050565b600080826040516114739190612729565b90815260200160405180910390206040518061010001604052908160008201805461149d90612605565b80601f01602080910402602001604051908101604052809291908181526020018280546114c990612605565b80156115165780601f106114eb57610100808354040283529160200191611516565b820191906000526020600020905b8154815290600101906020018083116114f957829003601f168201915b5050505050815260200160018201548152602001600282018054806020026020016040519081016040528092919081815260200182805480156115ae57602002820191906000526020600020905b8160009054906101000a900473ffffffffffffffffffffffffffffffffffffffff1673ffffffffffffffffffffffffffffffffffffffff1681526020019060010190808311611564575b505050505081526020016003820180548060200260200160405190810160405280929190818152602001828054801561163c57602002820191906000526020600020905b8160009054906101000a900473ffffffffffffffffffffffffffffffffffffffff1673ffffffffffffffffffffffffffffffffffffffff16815260200190600101908083116115f2575b50505050508152602001600482015481526020016005820154815260200160068201805461166990612605565b80601f016020809104026020016040519081016040528092919081815260200182805461169590612605565b80156116e25780601f106116b7576101008083540402835291602001916116e2565b820191906000526020600020905b8154815290600101906020018083116116c557829003601f168201915b505050505081526020016007820180546116fb90612605565b80601f016020809104026020016040519081016040528092919081815260200182805461172790612605565b80156117745780601f1061174957610100808354040283529160200191611774565b820191906000526020600020905b81548152906001019060200180831161175757829003601f168201915b5050505050815250509050604051806020016040528060008152508051906020012081600001518051906020012014156117da576040517ffbe9225100000000000000000000000000000000000000000000000000000000815260040160405180910390fd5b8060800151421115611818576040517ffdf3842300000000000000000000000000000000000000000000000000000000815260040160405180910390fd5b601e8160600151511415611858576040517fab4b92dc00000000000000000000000000000000000000000000000000000000815260040160405180910390fd5b6000816060015190506000815190506000811461190d5760005b8181101561190b573373ffffffffffffffffffffffffffffffffffffffff168382815181106118a4576118a361280e565b5b602002602001015173ffffffffffffffffffffffffffffffffffffffff1614156118fa576040517f13a4e40800000000000000000000000000000000000000000000000000000000815260040160405180910390fd5b806119049061276f565b9050611872565b505b60008460405161191d9190612729565b9081526020016040518091039020600301339080600181540180825580915050600190039060005260206000200160009091909190916101000a81548173ffffffffffffffffffffffffffffffffffffffff021916908373ffffffffffffffffffffffffffffffffffffffff16021790555050505050565b61199d611f03565b6000826040516119ad9190612729565b9081526020016040518091039020604051806101000160405290816000820180546119d790612605565b80601f0160208091040260200160405190810160405280929190818152602001828054611a0390612605565b8015611a505780601f10611a2557610100808354040283529160200191611a50565b820191906000526020600020905b815481529060010190602001808311611a3357829003601f168201915b505050505081526020016001820154815260200160028201805480602002602001604051908101604052809291908181526020018280548015611ae857602002820191906000526020600020905b8160009054906101000a900473ffffffffffffffffffffffffffffffffffffffff1673ffffffffffffffffffffffffffffffffffffffff1681526020019060010190808311611a9e575b5050505050815260200160038201805480602002602001604051908101604052809291908181526020018280548015611b7657602002820191906000526020600020905b8160009054906101000a900473ffffffffffffffffffffffffffffffffffffffff1673ffffffffffffffffffffffffffffffffffffffff1681526020019060010190808311611b2c575b505050505081526020016004820154815260200160058201548152602001600682018054611ba390612605565b80601f0160208091040260200160405190810160405280929190818152602001828054611bcf90612605565b8015611c1c5780601f10611bf157610100808354040283529160200191611c1c565b820191906000526020600020905b815481529060010190602001808311611bff57829003601f168201915b50505050508152602001600782018054611c3590612605565b80601f0160208091040260200160405190810160405280929190818152602001828054611c6190612605565b8015611cae5780601f10611c8357610100808354040283529160200191611cae565b820191906000526020600020905b815481529060010190602001808311611c9157829003601f168201915b5050505050815250509050919050565b6040518060200160405280600081525080519060200120600160003373ffffffffffffffffffffffffffffffffffffffff1673ffffffffffffffffffffffffffffffffffffffff168152602001908152602001600020604051611d2191906126d6565b60405180910390201415611d61576040517ffe8409fb00000000000000000000000000000000000000000000000000000000815260040160405180910390fd5b80600160008473ffffffffffffffffffffffffffffffffffffffff1673ffffffffffffffffffffffffffffffffffffffff1681526020019081526020016000209080519060200190611db4929190611df3565b505050565b600080606484611dc99190612871565b905060006127108285611ddc9190612871565b611de691906128fa565b9050809250505092915050565b828054611dff90612605565b90600052602060002090601f016020900481019282611e215760008555611e68565b82601f10611e3a57805160ff1916838001178555611e68565b82800160010185558215611e68579182015b82811115611e67578251825591602001919060010190611e4c565b5b509050611e759190611f48565b5090565b828054828255906000526020600020908101928215611ef2579160200282015b82811115611ef15782518260006101000a81548173ffffffffffffffffffffffffffffffffffffffff021916908373ffffffffffffffffffffffffffffffffffffffff16021790555091602001919060010190611e99565b5b509050611eff9190611f48565b5090565b60405180610100016040528060608152602001600081526020016060815260200160608152602001600081526020016000815260200160608152602001606081525090565b5b80821115611f61576000816000905550600101611f49565b5090565b6000604051905090565b600080fd5b600080fd5b600073ffffffffffffffffffffffffffffffffffffffff82169050919050565b6000611fa482611f79565b9050919050565b611fb481611f99565b8114611fbf57600080fd5b50565b600081359050611fd181611fab565b92915050565b600060208284031215611fed57611fec611f6f565b5b6000611ffb84828501611fc2565b91505092915050565b600080fd5b600080fd5b6000601f19601f8301169050919050565b7f4e487b7100000000000000000000000000000000000000000000000000000000600052604160045260246000fd5b6120578261200e565b810181811067ffffffffffffffff821117156120765761207561201f565b5b80604052505050565b6000612089611f65565b9050612095828261204e565b919050565b600067ffffffffffffffff8211156120b5576120b461201f565b5b6120be8261200e565b9050602081019050919050565b82818337600083830152505050565b60006120ed6120e88461209a565b61207f565b90508281526020810184848401111561210957612108612009565b5b6121148482856120cb565b509392505050565b600082601f83011261213157612130612004565b5b81356121418482602086016120da565b91505092915050565b6000806040838503121561216157612160611f6f565b5b600061216f85828601611fc2565b925050602083013567ffffffffffffffff8111156121905761218f611f74565b5b61219c8582860161211c565b9150509250929050565b60008115159050919050565b6121bb816121a6565b82525050565b60006020820190506121d660008301846121b2565b92915050565b6000819050919050565b6121ef816121dc565b81146121fa57600080fd5b50565b60008135905061220c816121e6565b92915050565b6000806000806080858703121561222c5761222b611f6f565b5b600085013567ffffffffffffffff81111561224a57612249611f74565b5b6122568782880161211c565b9450506020612267878288016121fd565b9350506040612278878288016121fd565b925050606085013567ffffffffffffffff81111561229957612298611f74565b5b6122a58782880161211c565b91505092959194509250565b6122ba816121dc565b82525050565b60006020820190506122d560008301846122b1565b92915050565b6000806000606084860312156122f4576122f3611f6f565b5b600084013567ffffffffffffffff81111561231257612311611f74565b5b61231e8682870161211c565b935050602061232f86828701611fc2565b9250506040612340868287016121fd565b9150509250925092565b6000602082840312156123605761235f611f6f565b5b600082013567ffffffffffffffff81111561237e5761237d611f74565b5b61238a8482850161211c565b91505092915050565b600081519050919050565b600082825260208201905092915050565b60005b838110156123cd5780820151818401526020810190506123b2565b838111156123dc576000848401525b50505050565b60006123ed82612393565b6123f7818561239e565b93506124078185602086016123af565b6124108161200e565b840191505092915050565b612424816121dc565b82525050565b600081519050919050565b600082825260208201905092915050565b6000819050602082019050919050565b61245f81611f99565b82525050565b60006124718383612456565b60208301905092915050565b6000602082019050919050565b60006124958261242a565b61249f8185612435565b93506124aa83612446565b8060005b838110156124db5781516124c28882612465565b97506124cd8361247d565b9250506001810190506124ae565b5085935050505092915050565b600061010083016000830151848203600086015261250682826123e2565b915050602083015161251b602086018261241b565b5060408301518482036040860152612533828261248a565b9150506060830151848203606086015261254d828261248a565b9150506080830151612562608086018261241b565b5060a083015161257560a086018261241b565b5060c083015184820360c086015261258d82826123e2565b91505060e083015184820360e08601526125a782826123e2565b9150508091505092915050565b600060208201905081810360008301526125ce81846124e8565b905092915050565b7f4e487b7100000000000000000000000000000000000000000000000000000000600052602260045260246000fd5b6000600282049050600182168061261d57607f821691505b60208210811415612631576126306125d6565b5b50919050565b600081905092915050565b60008190508160005260206000209050919050565b6000815461266481612605565b61266e8186612637565b94506001821660008114612689576001811461269a576126cd565b60ff198316865281860193506126cd565b6126a385612642565b60005b838110156126c5578154818901526001820191506020810190506126a6565b838801955050505b50505092915050565b60006126e28284612657565b915081905092915050565b600081905092915050565b600061270382612393565b61270d81856126ed565b935061271d8185602086016123af565b80840191505092915050565b600061273582846126f8565b915081905092915050565b7f4e487b7100000000000000000000000000000000000000000000000000000000600052601160045260246000fd5b600061277a826121dc565b91507fffffffffffffffffffffffffffffffffffffffffffffffffffffffffffffffff8214156127ad576127ac612740565b5b600182019050919050565b60006127c3826121dc565b91506127ce836121dc565b9250827fffffffffffffffffffffffffffffffffffffffffffffffffffffffffffffffff0382111561280357612802612740565b5b828201905092915050565b7f4e487b7100000000000000000000000000000000000000000000000000000000600052603260045260246000fd5b6000612848826121dc565b9150612853836121dc565b92508282101561286657612865612740565b5b828203905092915050565b600061287c826121dc565b9150612887836121dc565b9250817fffffffffffffffffffffffffffffffffffffffffffffffffffffffffffffffff04831182151516156128c0576128bf612740565b5b828202905092915050565b7f4e487b7100000000000000000000000000000000000000000000000000000000600052601260045260246000fd5b6000612905826121dc565b9150612910836121dc565b9250826129205761291f6128cb565b5b82820490509291505056fea264697066735822122011d8583609b33f9c3c0d4a1cedbb90ba7980baa78d6fb3398ab11c394a9f456564736f6c63430008080033",
  "linkReferences": {},
  "deployedLinkReferences": {}
}